:04000000B5EF00F068
:10001800D8CF01F0E8CF02F0E0CF03F0FACF04F038
:10002800FBCF05F0E9CF06F0EACF07F0E1CF08F003
:10003800E2CF09F0D9CF0AF0DACF0BF0F3CF0CF00A
:10004800F4CF0DF0F6CF0EF0F7CF0FF0F8CF10F099
:10005800F5CF11F0A4AA19D07ACF2AF02AC080FFD0
:100068002850800A2910D8A404D0000E296E000E4A
:10007800286E0201000E2824D96E0201020E2920E2
:10008800DA6E2AC0DFFF284A292AA49A11C0F5FF90
:1000980010C0F8FF0FC0F7FF0EC0F6FF0DC0F4FF49
:1000A8000CC0F3FF0BC0DAFF0AC0D9FF09C0E2FF9A
:1000B80008C0E1FF07C0EAFF06C0E9FF05C0FBFF73
:1000C80004C0FAFF03C0E0FF02C0E8FF01C0D8FF88
:1000D8001000D8CF12F0E8CF13F0E0CF14F0FACF29
:1000E80015F0FBCF16F0E9CF17F0EACF18F0E1CF03
:1000F80019F0E2CF1AF0D9CF1BF0DACF1CF0F3CF0A
:100108001DF0F4CF1EF0F6CF1FF0F7CF20F0F8CF98
:1001180021F0F5CF22F0F2BA00D0F29422C0F5FF18
:1001280021C0F8FF20C0F7FF1FC0F6FF1EC0F4FF74
:100138001DC0F3FF1CC0DAFF1BC0D9FF1AC0E2FFC5
:1001480019C0E1FF18C0EAFF17C0E9FF16C0FBFF9E
:1001580015C0FAFF14C0E0FF13C0E8FF12C0D8FFB3
:10016800100038EF01F0000E0001B06F21EE50F0E2
:1001780010EE60F0500EDECFE6FFE82EFCD77AECEA
:1001880001F05AEC01F0E7EC00F00001B06F000E4E
:100198000001B26F000E0001B16F0001B251800A78
:1001A800590F100ED8B4B15DD8B004D00001B14BCE
:1001B800B22BF3D70001000E246E0001600E236EEF
:1001C8008EEC01F0E4D780B002D0010E01D0000E11
:1001D800236E80B402D0010E01D0000E246ED89098
:1001E8002434256E80B402D0010E01D0000E266E94
:1001F800D8902636D890263680B602D0010E01D087
:10020800000E276ED8902736D8902736D8902734F6
:1002180026102510231012004D41535445522049F1
:1002280053205245414459200A200D000000000087
:1002380000000000000000000000000000000000B6
:1002480000000000000000000000000000000000A6
:100258000000000000000000000000000000000096
:10026800000000000000000002EE00F0800EEE6AC0
:10027800E806FDE101EE00F0500EEE6AE806FDE149
:100288002A6A296A286A200EF66E020EF76E000E98
:10029800F86E01EE50F010EE50F00900F5CFEEFFC9
:1002A800E550E150FAE10001B7EF00F0BA9EBA9CC0
:1002B800BA8ABA98BA96BA84BA82BA90A68EA69C16
:1002C800A69AA688A696A694A692A690B99EB98C38
:1002D800B99AB998B986B992B990000E7C6EA38A7A
:1002E800D08E330EAF6E0C0E7B6E1200300ED36EB6
:1002F800C280000E806E000E926E480E816E930EC4
:10030800936E000E826E000E946EF28EF28CC00E0A
:10031800F26E12000AD0A4A8FED723C0D9FF24C0C9
:10032800DAFFDF50796E234A242A23C0D9FF24C07C
:0A033800DAFFDF50D8B41200EED750
:020000040020DA
:08000000FFFFFFFFFFFFFFFF00
:020000040030CA
:0E00000014087E7CFF0991FF00000000000044
:00000001FF
