:04000000B1EF00F06C
:10001800D8CF01F0E8CF02F0E0CF03F0FACF04F038
:10002800FBCF05F0E9CF06F0EACF07F0E1CF08F003
:10003800E2CF09F0D9CF0AF0DACF0BF0F3CF0CF00A
:10004800F4CF0DF0F6CF0EF0F7CF0FF0F8CF10F099
:10005800F5CF11F0A4AA15D07ACF28F025507F0A41
:10006800D8A402D0000E256E2550010D0201000E05
:10007800F324D96E0201020EF420DA6E28C0DFFFE5
:10008800252AA49A11C0F5FF10C0F8FF0FC0F7FF8A
:100098000EC0F6FF0DC0F4FF0CC0F3FF0BC0DAFF73
:1000A8000AC0D9FF09C0E2FF08C0E1FF07C0EAFFA4
:1000B80006C0E9FF05C0FBFF04C0FAFF03C0E0FF6C
:1000C80002C0E8FF01C0D8FF1000D8CF12F0E8CF77
:1000D80013F0E0CF14F0FACF15F0FBCF16F0E9CF0C
:1000E80017F0EACF18F0E1CF19F0E2CF1AF0D9CF24
:1000F8001BF0DACF1CF0F3CF1DF0F4CF1EF0F6CFD3
:100108001FF0F7CF20F0F8CF21F0F5CF22F0F2BAA8
:1001180000D0F29422C0F5FF21C0F8FF20C0F7FFFD
:100128001FC0F6FF1EC0F4FF1DC0F3FF1CC0DAFF9E
:100138001BC0D9FF1AC0E2FF19C0E1FF18C0EAFFCF
:1001480017C0E9FF16C0FBFF15C0FAFF14C0E0FF97
:1001580013C0E8FF12C0D8FF1000EDEF01F021EE48
:1001680050F010EE60F0500EDECFE6FFE82EFCD720
:10017800000E0001B06F000E0001B16F000E00010B
:10018800B26F000E0001B36F000E0001B46F000ED5
:100198000001B56F000E0001B66F000E0001B76FC9
:1001A80032EC02F012EC02F00201020E246E02019F
:1001B800000E236E4AEC02F0000E0001B06F000E34
:1001C8000001B16F000E0001B26F000E0001B36FA5
:1001D8000001B351800A800F0BE1000E0001B25DEF
:1001E80007E1000E0001B15D03E1080E0001B05DFA
:1001F800D8B0DAD70001B05191EC01F08080000E40
:100208000001B46F000E0001B56F000E0001B66F5B
:10021800000E0001B76F0001B751800A800F0BE193
:10022800000E0001B65D07E1000E0001B55D03E1B7
:10023800640E0001B45DD8B01BD0010E0001B427D4
:10024800000E0001B5230001B6230001B723000109
:10025800B751800A800F0BE1000E0001B65D07E17F
:10026800000E0001B55D03E1640E0001B45DE3D743
:100278008090000E0001B46F000E0001B56F000EF3
:100288000001B66F000E0001B76F0001B751800A78
:10029800800F0BE1000E0001B65D07E1270E00019B
:1002A800B55D03E1100E0001B45DD8B01BD0010E9E
:1002B8000001B427000E0001B5230001B623000198
:1002C800B7230001B751800A800F0BE1000E00012F
:1002D800B65D07E1270E0001B55D03E1100E0001D0
:1002E800B45DE3D7010E0001B027000E0001B12371
:1002F8000001B2230001B3230001B351800A800F2B
:100308000BE1000E0001B25D07E1000E0001B15DD6
:1003180003E1080E0001B05D6BD7236E829E829CBC
:10032800829A8298829082928294829610D0828E4B
:100338001200828C1200828A120082881200828047
:1003480012008282120082841200828612002350D8
:10035800000AD8B4ECD7010AD8B4EBD7030AD8B44A
:10036800EAD7010AD8B4E9D7070AD8B4E8D7010A06
:10037800D8B4E7D7030AD8B4E6D7010AD8A412003C
:10038800E4D74D41535445522049532052454144E6
:1003980059200A200D0000000000000000000000A5
:1003A8000000000000000000000000000000000045
:1003B8000000000000000000000000000000000035
:1003C8000000000000000000000000000000000025
:1003D800000002EE00F0960EEE6AE806FDE101EE7E
:1003E80000F0500EEE6AE806FDE1286A276A266AE0
:1003F800256A8A0EF66E030EF76E000EF86E01EE91
:1004080050F010EE50F00900F5CFEEFFE550E15046
:10041800FAE1000EF86E0001B3EF00F0BA9EBA9C44
:10042800BA8ABA98BA96BA84BA82BA90A68EA69CA4
:10043800A69AA688A696A694A692A690B99EB98CC6
:10044800B99AB998B986B992B990A38AD08E730E21
:10045800AF6E000E7C6E890E7B6E1200700ED36E2E
:10046800000E0F015D6FC290000E806E000E926E3E
:10047800400E816E800E936E000E826E000E946E9A
:10048800F28EF28CC00EF26E9B8C12000AD0A4A8D9
:10049800FED723C0D9FF24C0DAFFDF50796E234A84
:1004A800242A23C0D9FF24C0DAFFDF50D8B41200B1
:0204B800EED77D
:020000040020DA
:08000000FFFFFFFFFFFFFFFF00
:020000040030CA
:0E00000014997E7CFF0991FF000000000000B3
:00000001FF
