:04000000B5EF00F068
:10001800D8CF01F0E8CF02F0E0CF03F0FACF04F038
:10002800FBCF05F0E9CF06F0EACF07F0E1CF08F003
:10003800E2CF09F0D9CF0AF0DACF0BF0F3CF0CF00A
:10004800F4CF0DF0F6CF0EF0F7CF0FF0F8CF10F099
:10005800F5CF11F0A4AA17D07ACF2FF02FC080FFC8
:100068002D50800AD8A402D0000E2D6E2D50010DFF
:100078000101000EF324D96E0101010EF420DA6E9D
:100088002FC0DFFF2D2A010E2E6EA49A11C0F5FF96
:1000980010C0F8FF0FC0F7FF0EC0F6FF0DC0F4FF49
:1000A8000CC0F3FF0BC0DAFF0AC0D9FF09C0E2FF9A
:1000B80008C0E1FF07C0EAFF06C0E9FF05C0FBFF73
:1000C80004C0FAFF03C0E0FF02C0E8FF01C0D8FF88
:1000D8001000D8CF12F0E8CF13F0E0CF14F0FACF29
:1000E80015F0FBCF16F0E9CF17F0EACF18F0E1CF03
:1000F80019F0E2CF1AF0D9CF1BF0DACF1CF0F3CF0A
:100108001DF0F4CF1EF0F6CF1FF0F7CF20F0F8CF98
:1001180021F0F5CF22F0F2BA00D0F29422C0F5FF18
:1001280021C0F8FF20C0F7FF1FC0F6FF1EC0F4FF74
:100138001DC0F3FF1CC0DAFF1BC0D9FF1AC0E2FFC5
:1001480019C0E1FF18C0EAFF17C0E9FF16C0FBFF9E
:1001580015C0FAFF14C0E0FF13C0E8FF12C0D8FFB3
:100168001000C2EF01F0000E256E000E266E000E84
:10017800276E000E286E000E296E000E2A6E000EE5
:100188002B6E000E2C6EAAEC01F08AEC01F02E0406
:10019800D8A4FDD7000E256E000E266E000E276E21
:1001A800000E286E2850800A800F08E1000E275C98
:1001B80005E1000E265C02E1090E255CD8B0E7D700
:1001C800255056EC01F00101010E246E0101000ECC
:1001D800236ED6EC01F08080000E296E000E2A6E88
:1001E800000E2B6E000E2C6E2C50800A800F08E13A
:1001F800000E2B5C05E1000E2A5C02E1640E295C0E
:10020800D8B013D0010E2926000E2A222B222C2228
:100218002C50800A800F08E1000E2B5C05E1000ECF
:100228002A5C02E1640E295CEBD78090000E296EEF
:10023800000E2A6E000E2B6E000E2C6E2C50800ABB
:10024800800F08E1010E2B5C05E1860E2A5C02E1B5
:10025800A00E295CD8B013D0010E2926000E2A2240
:100268002B222C222C50800A800F08E1010E2B5CD7
:1002780005E1860E2A5C02E1A00E295CEBD7010E8F
:100288002526000E2622272228222850800A800FA1
:1002980008E1000E275C05E1000E265C02E1090E6C
:1002A800255C8CD7236E829E829C829A829882904B
:1002B80082928294829610D0828E1200828C1200D2
:1002C800828A1200828812008280120082821200C2
:1002D80082841200828612002350000AD8B4ECD718
:1002E800010AD8B4EBD7030AD8B4EAD7010AD8B4BC
:1002F800E9D7070AD8B4E8D7010AD8B4E7D7030A78
:10030800D8B4E6D7010AD8A41200E4D7BA9EBA9C9A
:10031800BA8ABA98BA96BA84BA82BA90A68EA69CB5
:10032800A69AA688A696A694A692A690B99EB98CD7
:10033800B99AB998B986B992B990A38AD08E730E32
:10034800AF6E000E7C6E890E7B6E1200700ED36E3F
:10035800000E0F015D6FC290000E806E000E926E4F
:10036800400E816E800E936E000E826E000E946EAB
:10037800F28EF28CC00EF26E9B8C120001EE00F031
:10038800800EEE6AE806FDE100EE60F0500EEE6ABF
:10039800E806FDE12F6A2E6A2D6A000EF86E00014C
:1003A800B7EF00F00AD0A4A8FED723C0D9FF24C015
:1003B800DAFFDF50796E234A242A23C0D9FF24C0EC
:0A03C800DAFFDF50D8B41200EED7C0
:020000040020DA
:08000000FFFFFFFFFFFFFFFF00
:020000040030CA
:0E00000014997E7CFF0991FF000000000000B3
:00000001FF
