:040000009FEF3FF03F
:107F14002B6E2BC0A7FF12004D4943524F434849D3
:107F2400505F5553415254002B6EACAC03D0AC900F
:107F34001AB2AC802BC0ADFF120000EE01F01A0E95
:107F4400EE6AE806FDE11C0EF66E7F0EF76E000E7B
:107F5400F86E00EE1BF010EE10F00900F5CFEEFF06
:107F6400E550E150FAE10001B8EF3FF0000EC26EB7
:107F74000F0EC16E000ED16E7F0ED36E000E946E86
:107F840092689368F28EF28C000E2C6E190E2B6E92
:107F9400FF0ED4EC3FF0FF0E8AEC3FF0610E96EC3E
:107FA4003FF0FCD7306E000EAC6E000EAB6E30B0FE
:107FB400AC8830A202D0AC8CAB8C30B4AC8E30A682
:107FC40002D0AB8801D0AB8A30B8AC8430BAAB866F
:107FD40030AC02D09D8A01D09D9A30AE02D09D88EB
:107FE40001D09D982BC0AFFF2CC02DF02DC02EF0DA
:0C7FF4002F6A2E507D6EAC8AAB8E1200FE
:020000040020DA
:08000000FFFFFFFFFFFFFFFF00
:020000040030CA
:0E00000015C87F7CFF8991FF0FC00FE00F40F5
:00000001FF
