:04000000A8EF00F075
:10001800D8CF02F0E8CF03F0E0CF04F0FACF05F034
:10002800FBCF06F0E9CF07F0EACF08F0E1CF09F0FF
:10003800E2CF0AF0D9CF0BF0DACF0CF0F3CF0DF006
:10004800F4CF0EF0F6CF0FF0F7CF10F0F8CF11F095
:10005800F5CF12F0A4AA0CD07ACF28F02550800A48
:10006800D8A402D0000E256E285033EC02F0252AC1
:10007800A49A12C0F5FF11C0F8FF10C0F7FF0FC017
:10008800F6FF0EC0F4FF0DC0F3FF0CC0DAFF0BC083
:10009800D9FF0AC0E2FF09C0E1FF08C0EAFF07C0B4
:1000A800E9FF06C0FBFF05C0FAFF04C0E0FF03C07C
:1000B800E8FF02C0D8FF1000D8CF13F0E8CF14F043
:1000C800E0CF15F0FACF16F0FBCF17F0E9CF18F014
:1000D800EACF19F0E1CF1AF0E2CF1BF0D9CF1CF02C
:1000E800DACF1DF0F3CF1EF0F4CF1FF0F6CF20F0DB
:1000F800F7CF21F0F8CF22F0F5CF23F0F2BA00D0F5
:10010800F29423C0F5FF22C0F8FF21C0F7FF20C0FA
:10011800F6FF1FC0F4FF1EC0F3FF1DC0DAFF1CC0AE
:10012800D9FF1BC0E2FF1AC0E1FF19C0EAFF18C0DF
:10013800E9FF17C0FBFF16C0FAFF15C0E0FF14C0A7
:10014800E8FF13C0D8FF1000FCEF01F021EE50F0DB
:1001580010EE60F0500EDECFE6FFE82EFCD7000E62
:100168000001B06F000E0001B16F000E0001B26F08
:10017800000E0001B36F000E0001B46F000E000105
:10018800B56F000E0001B66F000E0001B76F1BECD3
:1001980002F0DCEC01F0000E0001B06F000E00016F
:1001A800B16F000E0001B26F000E0001B36F0001C5
:1001B800B351800A800F0BE1000E0001B25D07E128
:1001C800000E0001B15D03E1080E0001B05DD8B07A
:1001D800E2D70001B05180EC01F08080000E0001F0
:1001E800B46F000E0001B56F000E0001B66F000E6F
:1001F8000001B76F0001B751800A800F0BE1000EB4
:100208000001B65D07E1000E0001B55D03E1640E73
:100218000001B45DD8B01BD0010E0001B427000E58
:100228000001B5230001B6230001B7230001B7512F
:10023800800A800F0BE1000E0001B65D07E1000E99
:100248000001B55D03E1640E0001B45DE3D7809061
:10025800000E0001B46F000E0001B56F000E000122
:10026800B66F000E0001B76F0001B751800A800F0A
:100278000BE1000E0001B65D07E1270E0001B55D38
:1002880003E1100E0001B45DD8B01BD0010E0001CF
:10029800B427000E0001B5230001B6230001B723DF
:1002A8000001B751800A800F0BE1000E0001B65D16
:1002B80007E1270E0001B55D03E1100E0001B45DF2
:1002C800E3D7010E0001B027000E0001B1230001A1
:1002D800B2230001B3230001B351800A800F0BE160
:1002E800000E0001B25D07E1000E0001B15D03E1FF
:1002F800080E0001B05D6BD7246E829E829C829AA4
:100308008298829082928294829610D0828E120075
:10031800828C1200828A1200828812008280120067
:100328008282120082841200828612002450000AFF
:10033800D8B4ECD7010AD8B4EBD7030AD8B4EAD7B3
:10034800010AD8B4E9D7070AD8B4E8D7010AD8B45B
:10035800E7D7030AD8B4E6D7010AD8A41200E4D72D
:100368004D41535445522049532052454144592048
:100378000A200D000000000000000000000000003E
:100388000000000000000000000000000000000065
:100398000000000000000000000000000000000055
:1003A8000000000000000000000000000000000045
:1003B800BA9EBA9CBA8ABA98BA96BA84BA82BA90DD
:1003C800A68EA69CA69AA688A696A694A692A6905D
:1003D800B99EB98CB99AB998B986B992B990A38AD5
:1003E800D08E730EAF6E000E7C6E890E7B6E12007F
:1003F80001EE00F0500EEE6AE806FDE1286A276A71
:10040800266A256A680EF66E030EF76E000EF86E01
:1004180001EE50F010EE50F00900F5CFEEFFE55078
:10042800E150FAE1000EF86E0001AAEF00F0700E3C
:10043800D36E000E0F015D6FC290000E806E000E2D
:10044800926E400E816E800E936E000E826E000ECC
:10045800946EF28EF28CC00EF26E9B8C1200016EBE
:0A046800A4A8FED701C079FF12001E
:020000040020DA
:08000000FFFFFFFFFFFFFFFF00
:020000040030CA
:0E00000014997E7CFF0991FF000000000000B3
:00000001FF
