:0400000072EF00F0AB
:10001800D8CF01F0E8CF02F0E0CF03F0FACF04F038
:10002800FBCF05F0E9CF06F0EACF07F0E1CF08F003
:10003800E2CF09F0D9CF0AF0DACF0BF0F3CF0CF00A
:10004800F4CF0DF0F6CF0EF0F7CF0FF0F8CF10F099
:10005800F5CF11F0A4AA1ED07ACF19F019C080FFED
:100068001850800AF36E800EF35C800ED8B4175CCB
:10007800D8A004D0000E186E000E176E0201000EF4
:100088001724D96E0201020E1820DA6E19C0DFFF9C
:10009800174A182AA49A11C0F5FF10C0F8FF0FC01C
:1000A800F7FF0EC0F6FF0DC0F4FF0CC0F3FF0BC046
:1000B800DAFF0AC0D9FF09C0E2FF08C0E1FF07C0A4
:1000C800EAFF06C0E9FF05C0FBFF04C0FAFF03C052
:1000D800E0FF02C0E8FF01C0D8FF1000F5EF00F014
:1000E800000E0001B06F21EE50F010EE60F0500EDF
:1000F800DECFE6FFE82EFCD737EC01F017EC01F075
:10010800A4EC00F00001B06F000E0001B26F000E09
:100118000001B16F0001B251800A590F100ED8B416
:10012800B15DD8B004D00001B14BB22BF3D70001B8
:10013800000E136E0001600E126E4BEC01F0E4D756
:1001480080B002D0010E01D0000E126E80B402D031
:10015800010E01D0000E136ED8901334146E80B4C3
:1001680002D0010E01D0000E156ED8901536D89029
:10017800153680B602D0010E01D0000E166ED8904A
:100188001636D8901636D89016341510141012104A
:100198001200536C617665203120526561647920C4
:1001A8000A200D0000000000000000000000000010
:1001B8000000000000000000000000000000000037
:1001C8000000000000000000000000000000000027
:1001D8000000000000000000000000000000000017
:1001E800000002EE00F0800EEE6AE806FDE101EE86
:1001F80000F0500EEE6AE806FDE1196A186A176AFF
:100208009A0EF66E010EF76E000EF86E01EE50F0C3
:1002180010EE50F00900F5CFEEFFE550E150FAE19D
:10022800000174EF00F0BA9EBA9CBA8ABA98BA96DE
:10023800BA84BA82BA90A68EA69CA69AA688A696D2
:10024800A694A692A690B99EB98CB99AB998B9867F
:10025800B992B990000E7C6EA38AD08E330EAF6E21
:100268000C0E7B6E1200300ED36EC280000E806EB4
:10027800000E926E480E816E930E936E000E826E83
:10028800000E946EF28EF28CC00EF26E12000AD03E
:10029800A4A8FED712C0D9FF13C0DAFFDF50796EC9
:1002A800124A132A12C0D9FF13C0DAFFDF50D8B49C
:0402B8001200EED76B
:020000040020DA
:08000000FFFFFFFFFFFFFFFF00
:020000040030CA
:0E00000014087E7CFF0991FF00000000000044
:00000001FF
