:04000000F3EF3EF0EC
:107D7600C69A1200C5CF2BF01F0E2B16D8B4C7B467
:047D8600F9D7120017
:107D8B004D4943524F434849503A4932435F4D4165
:107D9B0053544552002C6E3F0EC716000EC66E0094
:107DAB000EC56E2C50C6122B50C71294869488C6E3
:107DBB008A1200C6CF2BF00F0E2B162B50080AD8A9
:107DCB00B407D0C6CF2BF00F0E2B162B500B0AD8A7
:107DDB00B4C586C7A0FED7C950120000EE01F0153E
:107DEB000EEE6AE806FDE18B0EF66E7D0EF76E0069
:107DFB000EF86E00EE16F010EE15F00900F5CFEE52
:107E0B00FFE550E150FAE100019EEF3FF020D0C6B4
:107E1B00A60DD02EC0D9FF2FC0DAFFDF5063EC3F89
:107E2B00F0306E3050D8B411D0305012009E962ED8
:107E3B00C0D9FF2FC0DAFFDF50C96EC6889EA6FEE1
:107E4B00D7C6B8C7B002D0FE0E12002E4A2F2A2E6C
:107E5B00C0D9FF2FC0DAFFDF50D8A4D9D7000E123C
:107E6B000026D0DFEC3EF02CC0D9FF2DC0DAFFDFAF
:107E7B006E2C4A2D2AC5B6FED7A1A602D0FF0E1234
:107E8B0000C6CF2FF00F0E2F162F50080AD8B408AC
:107E9B00D0C6CF2FF00F0E2F162F500B0AD8A407DA
:107EAB00D02E50D8B404D0C59AC588C5B8FED72EED
:107EBB00062E28D8A4D6D7000E12002D6E2DC0C9C1
:107ECB00FFC6AE02D0FF0E1200C6CF2CF00F0E2C49
:107EDB00162C50080AD8B412D0C6CF2CF00F0E2C8B
:107EEB00162C500B0AD8B40AD0C6889EA6FED7C74C
:107EFB00A4C7B002D0FE0E1200000E1200C6CF2C8B
:107F0B00F00F0E2C162C50080AD8B408D0C6CF2C64
:107F1B00F00F0E2C162C500B0AD8A41200C7B0FE73
:107F2B00D7BDEC3EF0C5AC02D0FE0E1200000E1217
:107F3B0000000E376E000E386E000E3B6E0BD03B02
:107F4B0050010D010EF324D96E000EF420DA6E00F1
:107F5B000EDF6E3B2A130E3B64F2D7A20E396EBBBB
:107F6B00EC3EF0080E376E800E386E38C02BF037B3
:107F7B0050D0EC3EF00A0EC86EBDEC3EF0C580C58D
:107F8B00B0FED7C9CF36F0395063EC3FF03A6E3ABA
:107F9B0066FAD7000E2F6E160E2E6E0CEC3FF0000D
:107FAB0009D8A4F7D7BDEC3EF0C582C5B2FED7BD4C
:107FBB00EC3EF0C9CF36F0A20E396E395001096391
:107FCB00EC3FF03A6E3A66F9D7000E2D6E010E2C8F
:107FDB006E140E2E6E36EC3FF00009D8A4F5D700C8
:107FEB000E156EC58AC588C5B8FED7C5B8FED7BBFA
:067FFB00EC3EF0FFD7FF91
:020000040020DA
:08000000FFFFFFFFFFFFFFFF00
:020000040030CA
:0E00000015C87F7CFF8991FF0FC00FE00F40F5
:00000001FF
