:04000000B3EF00F06A
:10001800D8CF01F0E8CF02F0E0CF03F0FACF04F038
:10002800FBCF05F0E9CF06F0EACF07F0E1CF08F003
:10003800E2CF09F0D9CF0AF0DACF0BF0F3CF0CF00A
:10004800F4CF0DF0F6CF0EF0F7CF0FF0F8CF10F099
:10005800F5CF11F0A4AA17D07ACF24F024C080FFDE
:100068002350800AD8A402D0000E236E2350010D1D
:100078000201000EF324D96E0201020EF420DA6E9A
:1000880024C0DFFF232AA49A11C0F5FF10C0F8FF8F
:100098000FC0F7FF0EC0F6FF0DC0F4FF0CC0F3FF52
:1000A8000BC0DAFF0AC0D9FF09C0E2FF08C0E1FFB0
:1000B80007C0EAFF06C0E9FF05C0FBFF04C0FAFF5E
:1000C80003C0E0FF02C0E8FF01C0D8FF1000D8CF8E
:1000D80012F0E8CF13F0E0CF14F0FACF15F0FBCF11
:1000E80016F0E9CF17F0EACF18F0E1CF19F0E2CF18
:1000F8001AF0D9CF1BF0DACF1CF0F3CF1DF0F4CFF4
:100108001EF0F6CF1FF0F7CF20F0F8CF21F0F5CF93
:1001180022F0F2BA00D0F29422C0F5FF21C0F8FF15
:1001280020C0F7FF1FC0F6FF1EC0F4FF1DC0F3FF7D
:100138001CC0DAFF1BC0D9FF1AC0E2FF19C0E1FFDB
:1001480018C0EAFF17C0E9FF16C0FBFF15C0FAFF89
:1001580014C0E0FF13C0E8FF12C0D8FF1000DDEFA5
:1001680000F04D41535445522049532052454144D3
:1001780059200A200D0000000000000000000000C7
:100188000000000000000000000000000000000067
:100198000000000000000000000000000000000057
:1001A8000000000000000000000000000000000047
:1001B800000002EE00F0800EEE6AE806FDE101EEB6
:1001C80000F0500EEE6AE806FDE1246A236A6A0E22
:1001D800F66E010EF76E000EF86E01EE50F010EE9E
:1001E80050F00900F5CFEEFFE550E150FAE10001CB
:1001F80033EF01F0BA9EBA9CBA8ABA98BA96BA8412
:10020800BA82BA90A68EA69CA69AA688A696A69406
:10021800A692A690B99EB98CB99AB998B986B9929E
:10022800B990A38AD08E730EAF6E000E7C6E890EC5
:100238007B6E1200700ED36EC280000E806E000EB0
:10024800926E480E816E930E936E000E826E000EB3
:10025800946EF28EF28CC00EF26E9B8C1200000E21
:100268000001B06F21EE50F010EE60F0500EDECFBE
:10027800E6FFE82EFCD71EEC01F0FEEC00F0FFD7FD
:020000040020DA
:08000000FFFFFFFFFFFFFFFF00
:020000040030CA
:0E00000014997E7CFF0991FF000000000000B3
:00000001FF
