:04000000BBEF3EF024
:107D3200016EACA2FED701C0ADFF12004D49435205
:107D42004F434849505F555341525400800E0F6EC5
:107D5200250E106E000E116E000E126E52EC3FF0E8
:107D6200410E99EC3EF0000E276E000E266E264A5A
:107D7200272AFDD700EE28F0190EEE6AE806FDE18B
:107D82003E0EF66E7D0EF76E000EF86E00EE41F0BE
:107D920010EE10F00900F5CFEEFFE550E150FAE1E8
:107DA2000001A7EF3EF0000E0A6E0850800A800F15
:107DB20008E1000E075C05E1000E065C02E1000E20
:107DC200055CD8B00AD0081E071E061E056C000E00
:107DD200062207220822010E0A6E0450800A800F32
:107DE20008E1000E035C05E1000E025C02E1000EF8
:107DF200015CD8B00AD0041E031E021E016C000EE4
:107E0200022203220422010E0A1A000E0B6E000E39
:107E12000C6E000E0D6E000E0E6E08500510061050
:107E22000710D8B42AD0010E096E06D0D8900536B4
:107E3200063607360836092A08AEF8D7D8900B3628
:107E42000C360D360E360550015C065002580750AE
:107E5200035808500458D8A009D00550015E0650B6
:107E6200025A0750035A0850045A0B80D89008321D
:107E7200073206320532092EE1D70A50D8B408D0AB
:107E82000E1E0D1E0C1E0B6C000E0C220D220E225D
:107E92000BC001F00CC002F00DC003F00EC004F0E4
:107EA20012000FC013F010C014F011C015F012C070
:107EB20016F0060ED8901336143615361636E82EFE
:107EC200F9D7131E141E151E161E132A000E142295
:107ED20015221622000E1324016E120E1420026EB9
:107EE2007A0E1520036E000E1620046E0FC017F0D6
:107EF20010C018F011C019F012C01AF0060ED89076
:107F02001736183619361A36E82EF9D717C005F083
:107F120018C006F019C007F01AC008F0D4EC3EF001
:107F220001C01BF002C01CF003C01DF004C01EF013
:107F32001BC01FF01CC020F0000E1F5C010E205859
:107F4200D8A04CD00FC013F010C014F011C015F01F
:107F520012C016F0040ED8901336143615361636A3
:107F6200E82EF9D7131E141E151E161E132A000E14
:107F7200142215221622000E1324016E120E142052
:107F8200026E7A0E1520036E000E1620046E0FC0CC
:107F920017F010C018F011C019F012C01AF0040E38
:107FA200D8901736183619361A36E82EF9D717C070
:107FB20005F018C006F019C007F01AC008F0D4EC9A
:107FC2003EF001C01BF002C01CF003C01DF004C053
:107FD2001EF01BC01FF01CC020F0AC84000E1F5C02
:107FE200010E2058D8B012000C0EAF6E000E7D6E3E
:0E7FF200AC98AB8E948E948CAB88AC8A120047
:020000040020DA
:08000000FFFFFFFFFFFFFFFF00
:020000040030CA
:0E00000015C87F7CFF8991FF0FC00FE00F40F5
:00000001FF
