:0400000045EF3FF099
:107E38000AD0A4A8FED701C0D9FF02C0DAFFDF50DC
:107E4800796E014A022A01C0D9FF02C0DAFFDF5069
:107E5800D8B41200EED7300ED36E100E0F015D6F3E
:107E6800070EC16EBC0EC06EC280000E806E926896
:107E7800480E816E930E936E000E826EE00E946E25
:107E8800120000EE60F0500EEE6AE806FDE15B6A53
:107E98005A6A596AFE0EF66E7E0EF76E000EF86E7E
:107EA80000EEB0F010EE50F00900F5CFEEFFE5500F
:107EB800E150FAE10001D0EF3FF0BA9EBA9CBA8ACD
:107EC800BA98BA96BA84BA82BA90A68EA69CA69A8E
:107ED800A688A696A694A692A690B99EB98CB99A99
:107EE800B998B986B992B990000E7C6E670EAF6EDC
:107EF800190E7B6E12005465737420E96D697373F3
:107F0800696F6E2075617274200A200D00000000F0
:107F18000000000000000000000000000000000059
:107F28000000000000000000000000000000000049
:107F38000000000000000000000000000000000039
:107F480000000000000080B002D0010E01D0000E39
:107F5800016E80B402D0010E01D0000E026ED890DE
:107F68000234036E80B402D0010E01D0000E046EFC
:107F7800D8900436D890043680B602D0010E01D0CD
:107F8800000E056ED8900536D8900536D890053481
:107F98000410031001101200000E566E20EEB0F00F
:107FA80010EE06F0500EDECFE6FFE82EFCD72FECE1
:107FB8003FF061EC3FF0F28EF28CA7EC3FF0566E8A
:107FC8000001000E026E0001600E016E1CEC3FF015
:107FD800A4AAFED77ACF79FFA49A000E586E000E95
:107FE800576E5850800A800F640ED8B4575CD8B0CA
:087FF800EFD7574A582AF5D7CC
:020000040020DA
:08000000FFFFFFFFFFFFFFFF00
:020000040030CA
:0E00000014087E7CFF0991FF00000000000044
:00000001FF
