:0400000070EF00F0AD
:10001800D8CF01F0E8CF02F0E0CF03F0FACF04F038
:10002800FBCF05F0E9CF06F0EACF07F0E1CF08F003
:10003800E2CF09F0D9CF0AF0DACF0BF0F3CF0CF00A
:10004800F4CF0DF0F6CF0EF0F7CF0FF0F8CF10F099
:10005800F5CF11F0A4AA1CD07ACF17F01750720A66
:10006800D8A402D0800E13D01750620AD8A402D0A8
:10007800400E0DD01750740AD8A402D0200E07D015
:100088001750760AD8A402D0E00E01D0000E806E78
:10009800A49A11C0F5FF10C0F8FF0FC0F7FF0EC0FB
:1000A800F6FF0DC0F4FF0CC0F3FF0BC0DAFF0AC067
:1000B800D9FF09C0E2FF08C0E1FF07C0EAFF06C098
:1000C800E9FF05C0FBFF04C0FAFF03C0E0FF02C060
:1000D800E8FF01C0D8FF1000F3EF00F0000E0001A8
:1000E800B06F21EE50F010EE60F0500EDECFE6FF5C
:1000F800E82EFCD735EC01F015EC01F0A2EC00F08D
:100108000001B06F000E0001B26F000E0001B16F68
:100118000001B251800A800F640ED8B4B15DD8B026
:1001280004D00001B14BB22BF3D70001000E136EBF
:100138000001600E126E49EC01F0E4D780B002D0E5
:10014800010E01D0000E126E80B402D0010E01D053
:10015800000E136ED8901334146E80B402D0010EC2
:1001680001D0000E156ED8901536D890153680B689
:1001780002D0010E01D0000E166ED8901636D89017
:100188001636D89016341510141012101200536C2D
:100198006176652031205265616479200A200D005E
:1001A8000000000000000000000000000000000047
:1001B8000000000000000000000000000000000037
:1001C8000000000000000000000000000000000027
:1001D800000000000000000000000000000001EE28
:1001E80000F0500EEE6AE806FDE1960EF66E010E7E
:1001F800F76E000EF86E01EE50F010EE50F00900A8
:10020800F5CFEEFFE550E150FAE1B80EF66E020EBA
:10021800F76E000EF86E0900F5CF17F0000172EFC7
:1002280000F0BA9EBA9CBA8ABA98BA96BA84BA82C8
:10023800BA90A68EA69CA69AA688A696A694A692DA
:10024800A690B99EB98CB99AB998B986B992B9905D
:10025800000E7C6E330EAF6E0C0E7B6EA38AD08EB2
:100268001200300ED36EC280000E806E000E926EA9
:10027800480E816E930E936E000E826EE00E946EA1
:10028800F28EF28CC00EF26E12000AD0A4A8FED72D
:1002980012C0D9FF13C0DAFFDF50796E124A132A51
:1002A80012C0D9FF13C0DAFFDF50D8B41200EED75E
:0202B800010043
:020000040020DA
:08000000FFFFFFFFFFFFFFFF00
:020000040030CA
:0E00000014087E7CFF0991FF00000000000044
:00000001FF
