:040000006BEF00F0B2
:10001800D8CF01F0E8CF02F0E0CF03F0FACF04F038
:10002800FBCF05F0E9CF06F0EACF07F0E1CF08F003
:10003800E2CF09F0D9CF0AF0DACF0BF0F3CF0CF00A
:10004800F4CF0DF0F6CF0EF0F7CF0FF0F8CF10F099
:10005800F5CF11F0A4AA17D07ACF14F01250800A65
:100068001310D8A404D0000E136E000E126E0201F5
:10007800000E1224D96E0201020E1320DA6E14C08B
:10008800DFFF124A132AA49A11C0F5FF10C0F8FF27
:100098000FC0F7FF0EC0F6FF0DC0F4FF0CC0F3FF52
:1000A8000BC0DAFF0AC0D9FF09C0E2FF08C0E1FFB0
:1000B80007C0EAFF06C0E9FF05C0FBFF04C0FAFF5E
:1000C80003C0E0FF02C0E8FF01C0D8FF1000BDEF89
:1000D80000F0536C617665205265616479200A20CE
:1000E8000D000000000000000000000000000000FB
:1000F80000000000000000000000000000000000F8
:1001080000000000000000000000000000000000E7
:1001180000000000000000000000000000000000D7
:100128000000000E0001B06F21EE50F010EE60F0FC
:10013800500EDECFE6FFE82EFCD7FFEC00F0DFEC38
:1001480000F0000E0001B26F000E0001B16F000157
:10015800B251800A800F640ED8B4B15DD8B004D013
:100168000001B14BB22BF3D700C280FF01C282FF5E
:10017800E8D702EE00F0800EEE6AE806FDE101EE37
:1001880000F0500EEE6AE806FDE1146A136A126A7E
:10019800DA0EF66E000EF76E000EF86E01EE50F0F5
:1001A80010EE50F00900F5CFEEFFE550E150FAE10E
:1001B800000195EF00F0BA9EBA9CBA8ABA98BA962E
:1001C800BA84BA82BA90A68EA69CA69AA688A69643
:1001D800A694A692A690B99EB98CB99AB998B986F0
:1001E800B992B990A38AD08E730EAF6E000E7C6E52
:1001F800890E7B6E1200700ED36EC280000E806E68
:10020800000E926E480E816E930E936E000E826EF3
:10021800000E946EF28EF28CC00EF26E9B8C120061
:020000040020DA
:08000000FFFFFFFFFFFFFFFF00
:020000040030CA
:0E00000014997E7CFF0991FF000000000000B3
:00000001FF
