:04000000B3EF00F06A
:10001800D8CF01F0E8CF02F0E0CF03F0FACF04F038
:10002800FBCF05F0E9CF06F0EACF07F0E1CF08F003
:10003800E2CF09F0D9CF0AF0DACF0BF0F3CF0CF00A
:10004800F4CF0DF0F6CF0EF0F7CF0FF0F8CF10F099
:10005800F5CF11F0A4AA17D07ACF37F03350800A21
:100068003410D8A404D0000E346E000E336E010193
:10007800000E3324D96E0101010E3420DA6E37C028
:10008800DFFF334A342AA49A11C0F5FF10C0F8FFE5
:100098000FC0F7FF0EC0F6FF0DC0F4FF0CC0F3FF52
:1000A8000BC0DAFF0AC0D9FF09C0E2FF08C0E1FFB0
:1000B80007C0EAFF06C0E9FF05C0FBFF04C0FAFF5E
:1000C80003C0E0FF02C0E8FF01C0D8FF1000D8CF8E
:1000D80012F0E8CF13F0E0CF14F0FACF15F0FBCF11
:1000E80016F0E9CF17F0EACF18F0E1CF19F0E2CF18
:1000F8001AF0D9CF1BF0DACF1CF0F3CF1DF0F4CFF4
:100108001EF0F6CF1FF0F7CF20F0F8CF21F0F5CF93
:1001180022F0F2BA00D0F29422C0F5FF21C0F8FF15
:1001280020C0F7FF1FC0F6FF1EC0F4FF1DC0F3FF7D
:100138001CC0DAFF1BC0D9FF1AC0E2FF19C0E1FFDB
:1001480018C0EAFF17C0E9FF16C0FBFF15C0FAFF89
:1001580014C0E0FF13C0E8FF12C0D8FF1000B5EFCD
:1001680000F001EE00F08C0EEE6AE806FDE100EE0C
:1001780060F0500EEE6AE806FDE100EE23F0150E81
:10018800EE6AE806FDE1640EF66E020EF76E000EEA
:10019800F86E00EE38F010EE08F00900F5CFEEFF2B
:1001A800E550E150FAE10001FAEF00F0BA9EBA9C7E
:1001B800BA8ABA98BA96BA84BA82BA90A68EA69C17
:1001C800A69AA688A696A694A692A690B99EB98C39
:1001D800B99AB998B986B992B990A38AD08E730E94
:1001E800AF6E000E7C6E890E7B6E120019EC01F06A
:1001F800DAEC00F0000E0001B16F000E0001B06FE4
:1002080037C080FF000E0001B16F000E0001B06F13
:100218000001B151800A7D0FE80ED8B4B05DD8B0A6
:10022800EFD70001B04BB12BF3D7700ED36E000E91
:100238000F015D6F000EC16E000E806E000E926E93
:10024800400E816E800E936E000E826E000E946ECC
:10025800F28EF28CF80EF26E9B8C120001020408EA
:0402680010204080A2
:020000040020DA
:08000000FFFFFFFFFFFFFFFF00
:020000040030CA
:0E00000014987E7CFF0991FF000000000000B4
:00000001FF
